:02000002D0002C
:1040000000400D0074510D00000006000C00050179
:084010000401BD0B00000000DB
:044018002C4F0D001C
:10401C0009480A49884208B505D0094A824202D0AB
:10402C00121A00F03BFF0748074A0021121A00F051
:10403C0043FF014808BD00BFD8E50320E4500D0044
:10404C0040E6032040E60320F0E7032070B5074E5E
:10405C00074C00F0ADFBA41BA4080025A54200D121
:10406C0070BD56F8043B98470135F7E7B4500D0086
:10407C00D8500D0000F01BB808B500F025F8BDE8CD
:10408C00084000F057BB00F00DBA00F013BA0078EE
:10409C00B0FA80F04009704701230370704710B5E7
:1040AC000446006808B100F005FA204610BD08B5BA
:1040BC0000F088FC4FF4165100F074FC00F0AEFEDA
:1040CC00BDE8084000F064BD10B500F07BFC00F0CA
:1040DC006DFC0028F9D000F075FC03681B6998474B
:1040EC00A0B300F06FFC03685B699847C4B200F0A2
:1040FC0069FC214600F0A7FAA4F13003012B10D87B
:10410C0000F08CFE2A2100F079FD00F087FE036898
:10411C0021469B68984700F081FEBDE8104000F0F6
:10412C0074BD3F2C12D100F079FE2A21012200F03F
:10413C005EFD00F073FE03685B699847044600F06F
:10414C0041FCE1B2BDE8104000F06EBA10BD0000B9
:10415C0038B50A4C0A4BA360002503202560A580C6
:10416C00A57100F013F90749074A204600F07EFEBE
:10417C0029460120BDE8384000F010B944E6032080
:10418C000000FFFFAB400D0040E6032008B5024BDA
:10419C001B689B68019308BD6802030008B5024BBD
:1041AC001B68DB68019308BD6802030008B5024B6D
:1041BC001B685B68019308BD1802030008B5024B2D
:1041CC001B685B69019308BD1802030008B5024B1C
:1041DC001B685B6C019308BD4802030008B5024BD9
:1041EC001B689B6C019308BD4802030008B5024B89
:1041FC001B685B69019308BD6402030008B5024BA0
:10420C001B681B68019308BD3C02030008B5024BF8
:10421C001B68DB68019308BD3C02030008B5024B28
:10422C001B681B69019308BD3C02030008B5024BD7
:10423C001B685B69019308BD3C02030008B5024B87
:10424C001B689B69019308BD3C02030008B5024B37
:10425C001B68DB69019308BD3C02030008B5024BE7
:10426C001B689B6A019308BD3C02030008B5024B16
:10427C001B68DB68019308BD2802030008B5024BDC
:10428C001B689B69019308BD2802030008B5024B0B
:10429C001B68DB69019308BD2802030008B5024BBB
:1042AC001B681B6A019308BD2802030008B5024B6A
:1042BC001B685B6A019308BD2802030008B5024B1A
:1042CC001B689B6A019308BD2802030008B5024BCA
:1042DC001B68DB6A019308BD2802030008B5024B7A
:1042EC001B681B6B019308BD2802030008B5024B29
:1042FC001B681B6C019308BD2802030008B5024B18
:10430C001B681B6D019308BD2802030008B5024B06
:10431C001B681B68019308BD4C02030008B5024BD7
:10432C001B685B68019308BD4C02030008B5024B87
:10433C001B681B69019308BD4C02030008B5024BB6
:10434C001B685B69019308BD4C02030008B5024B66
:10435C001B689B69019308BD4C02030008B5024B16
:10436C001B68DB69019308BD4C02030008B5024BC6
:10437C001B681B6A019308BD4C02030008B5024B75
:10438C001B689B6A019308BD4C02030008B5024BE5
:10439C001B685B68019308BD2002030008B5024B43
:1043AC001B68DB6A019308BD2002030008B5034BB0
:1043BC001B68D3F88830019308BD0000200203006D
:1043CC0008B5034B1B68D3F89430019308BD00006B
:1043DC002002030008B5024B1B685B68019308BD03
:1043EC004002030008B5024B1B689B68019308BD93
:1043FC004002030008B5024B1B68DB68019308BD43
:10440C004002030008B5024B1B681B69019308BDF1
:10441C004002030008B5024B1B685B69019308BDA1
:10442C004002030008B5024B1B689B69019308BD51
:10443C004002030008B5024B1B68DB69019308BD01
:10444C004002030008B5024B1B681B6A019308BDB0
:10445C004002030008B5024B1B681B6B019308BD9F
:10446C004002030008B5024B1B685B6B019308BD4F
:10447C004002030008B5024B1B681B6C019308BD7E
:10448C004002030008B5024B1B685B6C019308BD2E
:10449C004002030008B5024B1B68DB6B019308BD9F
:1044AC004402030008B5024B1B681B68019308BD4E
:1044BC001C02030008B5024B1B685B68019308BD26
:1044CC001C02030008B5024B1B685B6C019308BD12
:1044DC001C020300002240681146FFF7B3BF002204
:1044EC0040681146FFF7BEBF40680022FFF7B2BF1D
:1044FC004068002281F00101FFF79CBF0023406857
:10450C001A461946FFF78EBF002340681A46194613
:10451C00FFF780BF002240681146FFF773BF0022EF
:10452C0040681146FFF75EBF406800220221FFF78A
:10453C0061BF002340681A46FFF74CBF024B0322B1
:10454C005A60024A1A60704750E60320484F0D002B
:10455C0010B5094B094C022200201A60084B206050
:10456C00A080A071A360FFF711FF2046054A064901
:10457C00BDE8104000F07ABC64E6032058E6032046
:10458C000000FFFF40E60320AB400D0010B50446D1
:10459C00006808B1FFF722FE204610BD10B58368F5
:1045AC00044613B1032201469847204610BD000073
:1045BC0010B5064C002320462360FFF707FE20466B
:1045CC00034A0449BDE8104000F050BC68E60320E3
:1045DC0040E6032099450D00F8B506460D468F18A8
:1045EC000024BD420CD0336815F8011B9B68304683
:1045FC009847031E01DB1C44F3E7002C08BF1C4644
:10460C002046F8BD13B50446084659B1019100F097
:10461C007FFC23680199DB680246204602B0BDE8A6
:10462C001040184702B010BD03689B68184738B596
:10463C000D210546FFF7F8FF0A2104462846FFF72F
:10464C00F3FF204438BD38B50546FFF7EDFF0446AF
:10465C002846FFF7ECFF204438BD30B58BB0002363
:10466C008DF82430012A98BF0A2209AC0D46B1FB03
:10467C00F2F101FB125303F0FF03092B94BF30330B
:10468C003733DBB2AA4204F8013DEFD92146FFF7DC
:10469C00B9FF0BB030BD002340681A461946FFF72E
:1046AC00B9BE0000014B024A1A6070476CE6032049
:1046BC007C4F0D00024B1A68024B1A60704700BF0A
:1046CC00D8E5032070E6032010B50446FFF766FF1B
:1046DC00204610BD0348044A04490023836000F0BF
:1046EC00C5BB00BF74E6032040E60320D5460D0091
:1046FC00014B1860704700BFDCE5032008B50B4B7D
:10470C0043B100F05FF903681B699847002801DD8D
:10471C00AFF30080064B43B100F0D2F903681B697C
:10472C009847002801DDAFF3008008BD00000000B1
:10473C000000000008B5FFF7E1FFFFF73FFD014B5C
:10474C00186008BDD4E703200248034A0349121A33
:10475C0000F0A4BB00F4032004F40320E0500D008F
:10476C0007B5002300931A466FF07701FFF728FE78
:10477C0003B05DF804FB000007B543880A2B08D092
:10478C00502B0BD1094B1B684BB103B05DF804EBFC
:10479C001847FFF7E5FF03B05DF804FB0023009317
:1047AC001A466FF07701FFF70BFEF4E788E603205B
:1047BC0038B5124C1248134D0021FFF783FE2368C5
:1047CC00AB42114B0CBF012200221A7002D0FFF732
:1047DC00BBFF2560FFF7EAFC044600F075FB0B4BB2
:1047EC0013B12046AFF3008000210848FFF752FEBA
:1047FC00BDE8384006480021FFF7D8BD00F403207F
:10480C00FD460D001E1C279A84E6032000000000C4
:10481C0085470D00704710B51821044600F02BFB9E
:10482C00204610BDF0B5037D062B8DB00E4600F171
:10483C0004074FF0000412D000F1080515F8011D13
:10484C000A223046FFF709FFAF42044419D0002C6E
:10485C00F4D02E213046FFF7E7FE0444EEE72F2379
:10486C006A4639460A208DF80040FFF7BFFC6846BF
:10487C0000F04EFB33680246DB68694630469847C9
:10488C00044620460DB0F0BD10B5054B0446112270
:10489C0040F8043B002100F00FFB204610BD00BF88
:1048AC00A44F0D000346074A10B543F8042B01F141
:1048BC00100251F8044B43F8044B9142F9D10A7899
:1048CC001A7010BDA44F0D0010B59DF8084044EAB5
:1048DC00032343EA024242EA016104234160037567
:1048EC0010BD000013B5054B0360CB7800938B789B
:1048FC004A780978FFF7E8FF02B010BDA44F0D000D
:10490C0041747047704708B50021007CFFF71EFD0D
:10491C0040EAE07008BD08B50121007CFFF716FDE8
:10492C0040EAE07008BD08B5007CFFF707FD20EAFF
:10493C00E07008BD08B5007CFFF7F8FC20EAE070D9
:10494C0008BD13B50446007C0191FFF7F7FC002865
:10495C00019901DC607C20B1207CFFF7FFFC20EA90
:10496C00E07002B010BD007CFFF700BD10B5142143
:10497C00044600F080FA204610BD000010B54FF43C
:10498C007A73044608460021C4E90113044B2360E2
:10499C000123207463741146FFF7B8FC204610BD48
:1049AC00B84F0D00007C0022FFF7B8BC007CFFF76D
:1049BC00E5BC10B514220446002100F07DFA204617
:1049CC0010BD000010B5104C88B003A8FFF7F1FF24
:1049DC002178BFF35B8F11F0010111D120460191B9
:1049EC00FFF755FB019958B103AA0848FFF7C6FF1A
:1049FC002046FFF751FB064A0649044800F036FAF8
:104A0C00024808B010BD00BF8CE6032090E60320DE
:104A1C0040E6032011490D0070474174704708B5FA
:104A2C00007CFFF71BFC20EAE07008BD08B5007C99
:104A3C00FFF7F4FB20EAE07008BD08B5007CFFF737
:104A4C00FDFB40EAE07008BD08B5007CFFF7EEFB0B
:104A5C0040EAE07008BD007CFFF7F8BB37B5457C39
:104A6C0004462DB1207C03B0BDE83040FFF7CEBB2F
:104A7C00007C0191FFF7F2FB00280199F2DC28463B
:104A8C0003B030BD10B51421044600F0F4F92046F3
:104A9C0010BD000010B54FF0000C0446084611463E
:104AAC004FF47A72C4E901C2044A226001222074D4
:104ABC0062741A46FFF7A2FB204610BDE84F0D00AA
:104ACC0013B50E4C2178BFF35B8F11F0010112D19D
:104ADC0020460191FFF7DBFA019960B1084A094BB6
:104AEC000948FFF7D7FF2046FFF7D6FA074A0849CF
:104AFC00054800F0BBF9044802B010BDA4E6032041
:104B0C00A8E603202CE70320B0E7032040E60320AF
:104B1C00254A0D007047F8B5064615460C468F1809
:104B2C00BC4206D0336814F8011B9B68304698478A
:104B3C00F6E72846F8BD007C0022FFF7AFBB007CEF
:104B4C000021FFF7B3BB007C0021FFF7B7BB007C53
:104B5C000021FFF7BBBB007C0021FFF7BFBB10B5EA
:104B6C001421044600F087F9204610BD10B54FF40F
:104B7C007A73044608460021C4E90113034B2360F1
:104B8C0020741146FFF7B2FB204610BD18500D00E3
:104B9C000023007C1A461946FFF768BB7FB500223C
:104BAC001423CDE90122ADF804300B788DF80830D0
:104BBC004B680393CB680493007C0B7A059301A993
:104BCC00FFF79CFB07B05DF804FB1FB5003B8DF8AD
:104BDC0000104FF06401039118BF01236946019244
:104BEC008DF80830FFF7DAFF05B05DF804FB012300
:104BFC00FFF7EBBF007C0022FFF740BBC9B2FFF709
:104C0C00F9BF007C0022FFF741BB0121FFF7F9BF80
:104C1C00002240681146FFF7F5BB002240681146A0
:104C2C00FFF710BC002240681146FFF71BBC406820
:104C3C000022FFF70FBC4068002281F00101FFF752
:104C4C00F9BB002340681A461946FFF7EBBB00225C
:104C5C0040681146FFF7C6BB406800220221FFF7EF
:104C6C00C9BB002340681A46FFF7B4BB024B0422B1
:104C7C005A60024A1A607047C4E7032040500D0086
:104C8C00002340681A46FFF7A5BB406800220221AA
:104C9C00FFF7B0BB002240681146FFF7A3BB002210
:104CAC0040681146FFF7AEBB002340681A46194610
:104CBC00FFF7B0BB002340681A461946FFF7B2BB9A
:104CCC0040680021FFF7D6BB40680021FFF7DABB34
:104CDC004068002281F00101FFF7ACBB4068002264
:104CEC00FFF7B8BB002240681146FFF7BBBB0022A0
:104CFC0040681146FFF7A6BB2DE9F043002495B0A0
:104D0C0016460D460746FFF7BFFD214618220EA892
:104D1C00009400F0D1F84023CDE90C3421466B46C9
:104D2C000CAA3046FFF73AFA044600284CD102464A
:104D3C0001216868FFF766FB0221804622466868FD
:104D4C00FFF760FB009E81462146002E3CD00029D7
:104D5C003AD17368022B03D00A2B11D0F669F4E711
:104D6C00B8F1000F0AD0716906A8043107ADFFF73E
:104D7C00B9FD0FCD3C1D0FC42B6823704146EDE7E8
:104D8C00B9F1000F01D14946E8E77469102201A876
:104D9C0000F092F806238DF8143001AD04F10803ED
:104DAC001834186859682A4603C20833A3421546BA
:104DBC00F7D101A906A807ADFFF774FD0FCD3C1D77
:104DCC000FC42B682370DEE70098FFF7DFF9384635
:104DDC0015B0BDE8F0830000024B034A1A600022B4
:104DEC005A607047CCE703207C500D0038B5002387
:104DFC002025438014230446038085600561064901
:104E0C00284600F03AF804496060284600F035F86E
:104E1C00E060204638BD00BFB0500D0030B50F4DDE
:104E2C002978BFF35B8F11F0010487B013D12846AA
:104E3C00FFF72DF978B101A8FFF7D8FF01AA214699
:104E4C000748FFF793FE2846FFF726F9054A06495F
:104E5C00034800F00BF8024807B030BDD8E7032038
:104E6C00DCE7032040E60320214B0D000B460146F6
:104E7C00184600F005B8FFF708B9FFF704B90000B1
:104E8C0010B5054C13462CB10A4601460220AFF36F
:104E9C00008010BD2046FCE7000000000A4491424F
:104EAC0000F1FF3300D1704710B511F8014B03F836
:104EBC00014F9142F9D110BD02440346934200D1F7
:104ECC00704703F8011BF9E738B50D4B1D68AB6B48
:104EDC0004467BB91820FFF7E5FA0A4A0A4BA86387
:104EEC00C0E90023094B83600B238381012200233B
:104EFC00C0E90423AB6B00221C615A6138BD00BFB2
:104F0C00DCE503200E33CDAB34126DE6ECDE050090
:104F1C00034613F8012B002AFBD1181A01387047ED
:104F2C001D400D0059400D0081400D0085400D00C5
:104F3C000000000000000000000000003F450D00D4
:104F4C0035450D002B450D0021450D0015450D0077
:104F5C0009450D00CD4C0D00D54C0D00FD440D0048
:104F6C00F5440D00EB440D00E1440D00054D0D0022
:104F7C006170700025592D256D2D25645425483AF6
:104F8C00254D3A2553257A0061736374696D65006C
:104F9C00000000000000000031480D0021480D0009
:104FAC0023480D00000000000000000011490D0016
:104FBC0079490D004F490D00E5450D0041490D00A3
:104FCC0013490D0023490D0073490D0033490D00A1
:104FDC000D490D000000000000000000254A0D00E6
:104FEC00914A0D00694A0D00E5450D00394A0D0046
:104FFC00554A0D00474A0D00634A0D00274A0D0023
:10500C002B4A0D000000000000000000214B0D0099
:10501C006B4B0D00434B0D00234B0D004B4B0D0008
:10502C00534B0D005B4B0D00634B0D00000000005B
:10503C00000000006F4C0D00654C0D005B4C0D002A
:10504C001D4C0D00A3460D004F4C0D00CD4C0D001A
:10505C00D54C0D00434C0D003B4C0D00314C0D005C
:10506C00274C0D00054D0D00000000000000000055
:10507C008D4C0D00974C0D00A14C0D00AB4C0D0050
:10508C00B54C0D00C14C0D00CD4C0D00D54C0D0098
:10509C00DD4C0D00E94C0D00F14C0D00FB4C0D00EE
:1050AC00054D0D00000000005D410D0049450D004F
:1050BC005D450D00BD450D00B1460D00C1460D000E
:1050CC00E1460D00794C0D00E54D0D00000000008F
:0450DC0000000000D0
:0450E00000000000CC
:1050E400944F0D00E0E503200000000000000000E4
:1050F40000000000000000000000000000000000AC
:10510400000000000000000000000000000000009B
:10511400000000000000000000000000000000008B
:10512400000000000000000000000000000000007B
:10513400000000000000000000000000000000006B
:08514400000000000000000063
:10514C00FFFFFFFF00000102030405060708090A20
:10515C000B0C0D0E0F101112131415161718191A1B
:08516C001B1C1D1E1F20280062
:045174007856341223
:04000003D000401CCD
:00000001FF
